{
  "contractName": "jobPortal",
  "abi": [
    {
      "inputs": [],
      "stateMutability": "nonpayable",
      "type": "constructor"
    },
    {
      "anonymous": false,
      "inputs": [
        {
          "indexed": true,
          "internalType": "address",
          "name": "_employeeAddress",
          "type": "address"
        },
        {
          "indexed": false,
          "internalType": "string",
          "name": "_name",
          "type": "string"
        },
        {
          "indexed": false,
          "internalType": "uint256",
          "name": "_KYC_UID",
          "type": "uint256"
        }
      ],
      "name": "eventAddEmployee",
      "type": "event"
    },
    {
      "anonymous": false,
      "inputs": [
        {
          "indexed": true,
          "internalType": "address",
          "name": "_employerAddress",
          "type": "address"
        },
        {
          "indexed": false,
          "internalType": "string",
          "name": "_name",
          "type": "string"
        },
        {
          "indexed": false,
          "internalType": "uint256",
          "name": "_KYC_UID",
          "type": "uint256"
        }
      ],
      "name": "eventAddEmployer",
      "type": "event"
    },
    {
      "anonymous": false,
      "inputs": [
        {
          "indexed": true,
          "internalType": "address",
          "name": "_employee",
          "type": "address"
        },
        {
          "indexed": false,
          "internalType": "uint256",
          "name": "_jobId",
          "type": "uint256"
        }
      ],
      "name": "jobAccepted",
      "type": "event"
    },
    {
      "anonymous": false,
      "inputs": [
        {
          "indexed": true,
          "internalType": "address",
          "name": "_employer",
          "type": "address"
        },
        {
          "indexed": true,
          "internalType": "address",
          "name": "_employee",
          "type": "address"
        },
        {
          "indexed": false,
          "internalType": "uint256",
          "name": "_jobId",
          "type": "uint256"
        },
        {
          "indexed": false,
          "internalType": "bool",
          "name": "_status",
          "type": "bool"
        }
      ],
      "name": "jobOfferStatus",
      "type": "event"
    },
    {
      "anonymous": false,
      "inputs": [
        {
          "indexed": true,
          "internalType": "uint256",
          "name": "_jobId",
          "type": "uint256"
        },
        {
          "indexed": true,
          "internalType": "address",
          "name": "_jobOwner",
          "type": "address"
        },
        {
          "indexed": false,
          "internalType": "string",
          "name": "_titile",
          "type": "string"
        }
      ],
      "name": "jobPost",
      "type": "event"
    },
    {
      "inputs": [
        {
          "internalType": "address",
          "name": "",
          "type": "address"
        },
        {
          "internalType": "uint256",
          "name": "",
          "type": "uint256"
        }
      ],
      "name": "appliedJobs",
      "outputs": [
        {
          "internalType": "uint256",
          "name": "",
          "type": "uint256"
        }
      ],
      "stateMutability": "view",
      "type": "function",
      "constant": true
    },
    {
      "inputs": [],
      "name": "employeeCount",
      "outputs": [
        {
          "internalType": "uint256",
          "name": "",
          "type": "uint256"
        }
      ],
      "stateMutability": "view",
      "type": "function",
      "constant": true
    },
    {
      "inputs": [
        {
          "internalType": "address",
          "name": "",
          "type": "address"
        }
      ],
      "name": "employeeList",
      "outputs": [
        {
          "internalType": "string",
          "name": "name",
          "type": "string"
        },
        {
          "internalType": "uint256",
          "name": "KYC_UID",
          "type": "uint256"
        },
        {
          "internalType": "enum jobPortal.rating",
          "name": "Rating",
          "type": "uint8"
        },
        {
          "internalType": "uint8",
          "name": "experence",
          "type": "uint8"
        },
        {
          "internalType": "bool",
          "name": "status",
          "type": "bool"
        },
        {
          "internalType": "address payable",
          "name": "wallet",
          "type": "address"
        },
        {
          "internalType": "uint256",
          "name": "currentJobId",
          "type": "uint256"
        }
      ],
      "stateMutability": "view",
      "type": "function",
      "constant": true
    },
    {
      "inputs": [
        {
          "internalType": "uint256",
          "name": "",
          "type": "uint256"
        }
      ],
      "name": "employees",
      "outputs": [
        {
          "internalType": "address",
          "name": "",
          "type": "address"
        }
      ],
      "stateMutability": "view",
      "type": "function",
      "constant": true
    },
    {
      "inputs": [],
      "name": "employerCount",
      "outputs": [
        {
          "internalType": "uint256",
          "name": "",
          "type": "uint256"
        }
      ],
      "stateMutability": "view",
      "type": "function",
      "constant": true
    },
    {
      "inputs": [
        {
          "internalType": "address",
          "name": "",
          "type": "address"
        }
      ],
      "name": "employerList",
      "outputs": [
        {
          "internalType": "string",
          "name": "name",
          "type": "string"
        },
        {
          "internalType": "uint256",
          "name": "KYC_UID",
          "type": "uint256"
        },
        {
          "internalType": "address payable",
          "name": "wallet",
          "type": "address"
        }
      ],
      "stateMutability": "view",
      "type": "function",
      "constant": true
    },
    {
      "inputs": [
        {
          "internalType": "uint256",
          "name": "",
          "type": "uint256"
        }
      ],
      "name": "employers",
      "outputs": [
        {
          "internalType": "address",
          "name": "",
          "type": "address"
        }
      ],
      "stateMutability": "view",
      "type": "function",
      "constant": true
    },
    {
      "inputs": [
        {
          "internalType": "address",
          "name": "",
          "type": "address"
        },
        {
          "internalType": "uint256",
          "name": "",
          "type": "uint256"
        }
      ],
      "name": "employersWisejobID",
      "outputs": [
        {
          "internalType": "uint256",
          "name": "",
          "type": "uint256"
        }
      ],
      "stateMutability": "view",
      "type": "function",
      "constant": true
    },
    {
      "inputs": [],
      "name": "jobCount",
      "outputs": [
        {
          "internalType": "uint256",
          "name": "",
          "type": "uint256"
        }
      ],
      "stateMutability": "view",
      "type": "function",
      "constant": true
    },
    {
      "inputs": [
        {
          "internalType": "uint256",
          "name": "",
          "type": "uint256"
        }
      ],
      "name": "jobList",
      "outputs": [
        {
          "internalType": "uint256",
          "name": "jobId",
          "type": "uint256"
        },
        {
          "internalType": "string",
          "name": "titile",
          "type": "string"
        },
        {
          "internalType": "uint256",
          "name": "timeInDays",
          "type": "uint256"
        },
        {
          "internalType": "bool",
          "name": "status",
          "type": "bool"
        },
        {
          "internalType": "address payable",
          "name": "jobOwner",
          "type": "address"
        }
      ],
      "stateMutability": "view",
      "type": "function",
      "constant": true
    },
    {
      "inputs": [
        {
          "internalType": "uint256",
          "name": "",
          "type": "uint256"
        },
        {
          "internalType": "address",
          "name": "",
          "type": "address"
        }
      ],
      "name": "joboffer",
      "outputs": [
        {
          "internalType": "bool",
          "name": "",
          "type": "bool"
        }
      ],
      "stateMutability": "view",
      "type": "function",
      "constant": true
    },
    {
      "inputs": [],
      "name": "openTransactions",
      "outputs": [
        {
          "internalType": "uint256",
          "name": "",
          "type": "uint256"
        }
      ],
      "stateMutability": "view",
      "type": "function",
      "constant": true
    },
    {
      "inputs": [
        {
          "internalType": "string",
          "name": "_name",
          "type": "string"
        },
        {
          "internalType": "uint256",
          "name": "_KYC_UID",
          "type": "uint256"
        },
        {
          "internalType": "uint8",
          "name": "_experence",
          "type": "uint8"
        },
        {
          "internalType": "address payable",
          "name": "_wallet",
          "type": "address"
        }
      ],
      "name": "addEmployee",
      "outputs": [],
      "stateMutability": "nonpayable",
      "type": "function"
    },
    {
      "inputs": [
        {
          "internalType": "string",
          "name": "_name",
          "type": "string"
        },
        {
          "internalType": "uint256",
          "name": "_KYC_UID",
          "type": "uint256"
        },
        {
          "internalType": "address payable",
          "name": "_wallet",
          "type": "address"
        }
      ],
      "name": "addEmployer",
      "outputs": [],
      "stateMutability": "nonpayable",
      "type": "function"
    },
    {
      "inputs": [
        {
          "internalType": "string",
          "name": "_titile",
          "type": "string"
        },
        {
          "internalType": "uint8",
          "name": "_timeInDays",
          "type": "uint8"
        }
      ],
      "name": "postJob",
      "outputs": [],
      "stateMutability": "nonpayable",
      "type": "function"
    },
    {
      "inputs": [
        {
          "internalType": "uint256",
          "name": "_jobId",
          "type": "uint256"
        }
      ],
      "name": "getjob",
      "outputs": [
        {
          "internalType": "string",
          "name": "",
          "type": "string"
        },
        {
          "internalType": "uint256",
          "name": "",
          "type": "uint256"
        }
      ],
      "stateMutability": "view",
      "type": "function",
      "constant": true
    },
    {
      "inputs": [
        {
          "internalType": "uint256",
          "name": "_jobId",
          "type": "uint256"
        }
      ],
      "name": "applyjob",
      "outputs": [],
      "stateMutability": "nonpayable",
      "type": "function"
    },
    {
      "inputs": [
        {
          "internalType": "uint256",
          "name": "_jobId",
          "type": "uint256"
        }
      ],
      "name": "getApplicants",
      "outputs": [
        {
          "internalType": "address[]",
          "name": "",
          "type": "address[]"
        }
      ],
      "stateMutability": "view",
      "type": "function",
      "constant": true
    },
    {
      "inputs": [
        {
          "internalType": "address",
          "name": "_address",
          "type": "address"
        }
      ],
      "name": "applicantDetails",
      "outputs": [
        {
          "internalType": "string",
          "name": "",
          "type": "string"
        },
        {
          "internalType": "uint256",
          "name": "",
          "type": "uint256"
        },
        {
          "internalType": "enum jobPortal.rating",
          "name": "",
          "type": "uint8"
        },
        {
          "internalType": "uint256",
          "name": "",
          "type": "uint256"
        },
        {
          "internalType": "bool",
          "name": "",
          "type": "bool"
        },
        {
          "internalType": "address",
          "name": "",
          "type": "address"
        }
      ],
      "stateMutability": "view",
      "type": "function",
      "constant": true
    },
    {
      "inputs": [
        {
          "internalType": "uint256",
          "name": "_jobId",
          "type": "uint256"
        },
        {
          "internalType": "address",
          "name": "_employee",
          "type": "address"
        },
        {
          "internalType": "bool",
          "name": "_action",
          "type": "bool"
        }
      ],
      "name": "applicationAction",
      "outputs": [],
      "stateMutability": "nonpayable",
      "type": "function"
    },
    {
      "inputs": [
        {
          "internalType": "uint256",
          "name": "_jobId",
          "type": "uint256"
        }
      ],
      "name": "acceptJob",
      "outputs": [],
      "stateMutability": "nonpayable",
      "type": "function"
    },
    {
      "inputs": [
        {
          "internalType": "uint256",
          "name": "_jobId",
          "type": "uint256"
        },
        {
          "internalType": "uint256",
          "name": "_rating",
          "type": "uint256"
        },
        {
          "internalType": "address",
          "name": "_employee",
          "type": "address"
        }
      ],
      "name": "rateEmployee",
      "outputs": [],
      "stateMutability": "nonpayable",
      "type": "function"
    }
  ],
  "bytecode": "0x608060405234801561001057600080fd5b50336000806101000a81548173ffffffffffffffffffffffffffffffffffffffff021916908373ffffffffffffffffffffffffffffffffffffffff16021790555060006001819055506000600281905550600060038190555060006004819055506138a3806100806000396000f3fe608060405234801561001057600080fd5b50600436106101425760003560e01c806365c498ab116100b8578063a52785ea1161007c578063a52785ea146103c8578063a9144e1a146103fd578063af4fe5e114610419578063cd16abfb14610435578063cfe26e9b1461046b578063f9f38bdf1461048757610142565b806365c498ab146102e757806365e7719a146103185780636cf5d86e1461034a5780637495b4751461037a5780639047bf58146103aa57610142565b80634739326b1161010a5780634739326b146102135780634b62c466146102435780634c5d8a0f146102615780634ce639801461027f5780635c2d244d1461029b57806363b2f3c9146102cb57610142565b8063066c4562146101475780630c33c5221461017757806313f367d3146101ab5780632b3d77f4146101c75780632edffc95146101e3575b600080fd5b610161600480360381019061015c9190612875565b6104a5565b60405161016e91906128e3565b60405180910390f35b610191600480360381019061018c9190612875565b6104e4565b6040516101a29594939291906129d9565b60405180910390f35b6101c560048036038101906101c09190612a8b565b6105cf565b005b6101e160048036038101906101dc9190612c78565b610975565b005b6101fd60048036038101906101f89190612cfb565b610e42565b60405161020a9190612d3b565b60405180910390f35b61022d60048036038101906102289190612875565b610e73565b60405161023a91906128e3565b60405180910390f35b61024b610eb2565b6040516102589190612d3b565b60405180910390f35b610269610eb8565b6040516102769190612d3b565b60405180910390f35b61029960048036038101906102949190612d56565b610ebe565b005b6102b560048036038101906102b09190612dc5565b611223565b6040516102c29190612e05565b60405180910390f35b6102e560048036038101906102e09190612875565b611252565b005b61030160048036038101906102fc9190612875565b611581565b60405161030f929190612e20565b60405180910390f35b610332600480360381019061032d9190612e50565b611717565b60405161034193929190612e7d565b60405180910390f35b610364600480360381019061035f9190612875565b6117e9565b6040516103719190612f79565b60405180910390f35b610394600480360381019061038f9190612cfb565b611997565b6040516103a19190612d3b565b60405180910390f35b6103b26119c8565b6040516103bf9190612d3b565b60405180910390f35b6103e260048036038101906103dd9190612e50565b6119ce565b6040516103f496959493929190613012565b60405180910390f35b6104176004803603810190610412919061307a565b611d27565b005b610433600480360381019061042e9190612875565b611fbb565b005b61044f600480360381019061044a9190612e50565b6121fb565b60405161046297969594939291906130e5565b60405180910390f35b6104856004803603810190610480919061315b565b61230c565b005b61048f612825565b60405161049c9190612d3b565b60405180910390f35b600881815481106104b557600080fd5b906000526020600020016000915054906101000a900473ffffffffffffffffffffffffffffffffffffffff1681565b600960205280600052604060002060009150905080600001549080600101805461050d906131dd565b80601f0160208091040260200160405190810160405280929190818152602001828054610539906131dd565b80156105865780601f1061055b57610100808354040283529160200191610586565b820191906000526020600020905b81548152906001019060200180831161056957829003601f168201915b5050505050908060020154908060030160009054906101000a900460ff16908060030160019054906101000a900473ffffffffffffffffffffffffffffffffffffffff16905085565b823373ffffffffffffffffffffffffffffffffffffffff166009600083815260200190815260200160002060030160019054906101000a900473ffffffffffffffffffffffffffffffffffffffff1673ffffffffffffffffffffffffffffffffffffffff1614610674576040517f08c379a000000000000000000000000000000000000000000000000000000000815260040161066b9061325a565b60405180910390fd5b3373ffffffffffffffffffffffffffffffffffffffff16600760003373ffffffffffffffffffffffffffffffffffffffff1673ffffffffffffffffffffffffffffffffffffffff16815260200190815260200160002060020160009054906101000a900473ffffffffffffffffffffffffffffffffffffffff1673ffffffffffffffffffffffffffffffffffffffff1614610744576040517f08c379a000000000000000000000000000000000000000000000000000000000815260040161073b9061325a565b60405180910390fd5b60005b600b60003373ffffffffffffffffffffffffffffffffffffffff1673ffffffffffffffffffffffffffffffffffffffff16815260200190815260200160002060008681526020019081526020016000208054905081101561094e578373ffffffffffffffffffffffffffffffffffffffff16600b60003373ffffffffffffffffffffffffffffffffffffffff1673ffffffffffffffffffffffffffffffffffffffff1681526020019081526020016000206000878152602001908152602001600020828154811061081b5761081a61327a565b5b9060005260206000200160009054906101000a900473ffffffffffffffffffffffffffffffffffffffff1673ffffffffffffffffffffffffffffffffffffffff16036109355782600c600087815260200190815260200160002060008673ffffffffffffffffffffffffffffffffffffffff1673ffffffffffffffffffffffffffffffffffffffff16815260200190815260200160002060006101000a81548160ff0219169083151502179055508373ffffffffffffffffffffffffffffffffffffffff163373ffffffffffffffffffffffffffffffffffffffff167f0b4b58017f4ec0fa7bf530bdbc5601886b84e4c86c20c9af44e4f1e52f0b391f87866040516109289291906132a9565b60405180910390a361093a565b61093b565b5b808061094690613301565b915050610747565b508161096f576001600460008282546109679190613349565b925050819055505b50505050565b3373ffffffffffffffffffffffffffffffffffffffff1660008054906101000a900473ffffffffffffffffffffffffffffffffffffffff1673ffffffffffffffffffffffffffffffffffffffff1614610a03576040517f08c379a00000000000000000000000000000000000000000000000000000000081526004016109fa9061325a565b60405180910390fd5b8060006001905060005b600680549050811015610aad578273ffffffffffffffffffffffffffffffffffffffff1660068281548110610a4557610a4461327a565b5b9060005260206000200160009054906101000a900473ffffffffffffffffffffffffffffffffffffffff1673ffffffffffffffffffffffffffffffffffffffff1603610a945760009150610a99565b610a9a565b5b8080610aa590613301565b915050610a0d565b5080610aee576040517f08c379a0000000000000000000000000000000000000000000000000000000008152600401610ae5906133c9565b60405180910390fd5b6001806000828254610b0091906133e9565b9250508190555085600560008573ffffffffffffffffffffffffffffffffffffffff1673ffffffffffffffffffffffffffffffffffffffff1681526020019081526020016000206000019081610b5691906135c9565b5084600560008573ffffffffffffffffffffffffffffffffffffffff1673ffffffffffffffffffffffffffffffffffffffff1681526020019081526020016000206001018190555060058060008573ffffffffffffffffffffffffffffffffffffffff1673ffffffffffffffffffffffffffffffffffffffff16815260200190815260200160002060020160006101000a81548160ff02191690836005811115610c0357610c02612f9b565b5b021790555083600560008573ffffffffffffffffffffffffffffffffffffffff1673ffffffffffffffffffffffffffffffffffffffff16815260200190815260200160002060020160016101000a81548160ff021916908360ff1602179055506001600560008573ffffffffffffffffffffffffffffffffffffffff1673ffffffffffffffffffffffffffffffffffffffff16815260200190815260200160002060020160026101000a81548160ff02191690831515021790555082600560008573ffffffffffffffffffffffffffffffffffffffff1673ffffffffffffffffffffffffffffffffffffffff16815260200190815260200160002060020160036101000a81548173ffffffffffffffffffffffffffffffffffffffff021916908373ffffffffffffffffffffffffffffffffffffffff1602179055506000600560008573ffffffffffffffffffffffffffffffffffffffff1673ffffffffffffffffffffffffffffffffffffffff168152602001908152602001600020600301819055506006839080600181540180825580915050600190039060005260206000200160009091909190916101000a81548173ffffffffffffffffffffffffffffffffffffffff021916908373ffffffffffffffffffffffffffffffffffffffff1602179055508273ffffffffffffffffffffffffffffffffffffffff167f9d52f4ed2aa456f37eedd9d52cd05bf80f29ad93cae9bbaef67a0c0593db1e0d8787604051610e32929190612e20565b60405180910390a2505050505050565b600d6020528160005260406000208181548110610e5e57600080fd5b90600052602060002001600091509150505481565b60068181548110610e8357600080fd5b906000526020600020016000915054906101000a900473ffffffffffffffffffffffffffffffffffffffff1681565b60025481565b60035481565b3373ffffffffffffffffffffffffffffffffffffffff1660008054906101000a900473ffffffffffffffffffffffffffffffffffffffff1673ffffffffffffffffffffffffffffffffffffffff1614610f4c576040517f08c379a0000000000000000000000000000000000000000000000000000000008152600401610f439061325a565b60405180910390fd5b8060006001905060005b600880549050811015610ff6578273ffffffffffffffffffffffffffffffffffffffff1660088281548110610f8e57610f8d61327a565b5b9060005260206000200160009054906101000a900473ffffffffffffffffffffffffffffffffffffffff1673ffffffffffffffffffffffffffffffffffffffff1603610fdd5760009150610fe2565b610fe3565b5b8080610fee90613301565b915050610f56565b5080611037576040517f08c379a000000000000000000000000000000000000000000000000000000000815260040161102e906136e7565b60405180910390fd5b60016002600082825461104a91906133e9565b925050819055506008339080600181540180825580915050600190039060005260206000200160009091909190916101000a81548173ffffffffffffffffffffffffffffffffffffffff021916908373ffffffffffffffffffffffffffffffffffffffff16021790555084600760008573ffffffffffffffffffffffffffffffffffffffff1673ffffffffffffffffffffffffffffffffffffffff168152602001908152602001600020600001908161110391906135c9565b5083600760008573ffffffffffffffffffffffffffffffffffffffff1673ffffffffffffffffffffffffffffffffffffffff1681526020019081526020016000206001018190555082600760008573ffffffffffffffffffffffffffffffffffffffff1673ffffffffffffffffffffffffffffffffffffffff16815260200190815260200160002060020160006101000a81548173ffffffffffffffffffffffffffffffffffffffff021916908373ffffffffffffffffffffffffffffffffffffffff1602179055508273ffffffffffffffffffffffffffffffffffffffff167ff2fc18c7526998d39ed7a9f9a8a3c9ba493645930f07b17061f456576fd889198686604051611214929190612e20565b60405180910390a25050505050565b600c6020528160005260406000206020528060005260406000206000915091509054906101000a900460ff1681565b3373ffffffffffffffffffffffffffffffffffffffff16600560003373ffffffffffffffffffffffffffffffffffffffff1673ffffffffffffffffffffffffffffffffffffffff16815260200190815260200160002060020160039054906101000a900473ffffffffffffffffffffffffffffffffffffffff1673ffffffffffffffffffffffffffffffffffffffff1614611322576040517f08c379a00000000000000000000000000000000000000000000000000000000081526004016113199061325a565b60405180910390fd5b80600080600090505b600d60003373ffffffffffffffffffffffffffffffffffffffff1673ffffffffffffffffffffffffffffffffffffffff168152602001908152602001600020805490508110156113f95782600d60003373ffffffffffffffffffffffffffffffffffffffff1673ffffffffffffffffffffffffffffffffffffffff16815260200190815260200160002082815481106113c7576113c661327a565b5b9060005260206000200154036113e057600191506113e5565b6113e6565b5b80806113f190613301565b91505061132b565b508061143a576040517f08c379a000000000000000000000000000000000000000000000000000000000815260040161143190613753565b60405180910390fd5b82600560003373ffffffffffffffffffffffffffffffffffffffff1673ffffffffffffffffffffffffffffffffffffffff168152602001908152602001600020600301819055506000600560003373ffffffffffffffffffffffffffffffffffffffff1673ffffffffffffffffffffffffffffffffffffffff16815260200190815260200160002060020160026101000a81548160ff02191690831515021790555033600e600085815260200190815260200160002060006101000a81548173ffffffffffffffffffffffffffffffffffffffff021916908373ffffffffffffffffffffffffffffffffffffffff1602179055503373ffffffffffffffffffffffffffffffffffffffff167ff2b56687ae3c56dadf20e7eeb2a3df70c8f6f7832318e95d1730a3e64a6f7f86846040516115749190612d3b565b60405180910390a2505050565b606060003373ffffffffffffffffffffffffffffffffffffffff16600560003373ffffffffffffffffffffffffffffffffffffffff1673ffffffffffffffffffffffffffffffffffffffff16815260200190815260200160002060020160039054906101000a900473ffffffffffffffffffffffffffffffffffffffff1673ffffffffffffffffffffffffffffffffffffffff1614611655576040517f08c379a000000000000000000000000000000000000000000000000000000000815260040161164c9061325a565b60405180910390fd5b60096000848152602001908152602001600020600101600960008581526020019081526020016000206002015481805461168e906131dd565b80601f01602080910402602001604051908101604052809291908181526020018280546116ba906131dd565b80156117075780601f106116dc57610100808354040283529160200191611707565b820191906000526020600020905b8154815290600101906020018083116116ea57829003601f168201915b5050505050915091509150915091565b600760205280600052604060002060009150905080600001805461173a906131dd565b80601f0160208091040260200160405190810160405280929190818152602001828054611766906131dd565b80156117b35780601f10611788576101008083540402835291602001916117b3565b820191906000526020600020905b81548152906001019060200180831161179657829003601f168201915b5050505050908060010154908060020160009054906101000a900473ffffffffffffffffffffffffffffffffffffffff16905083565b60603373ffffffffffffffffffffffffffffffffffffffff16600760003373ffffffffffffffffffffffffffffffffffffffff1673ffffffffffffffffffffffffffffffffffffffff16815260200190815260200160002060020160009054906101000a900473ffffffffffffffffffffffffffffffffffffffff1673ffffffffffffffffffffffffffffffffffffffff16146118bb576040517f08c379a00000000000000000000000000000000000000000000000000000000081526004016118b29061325a565b60405180910390fd5b600b60003373ffffffffffffffffffffffffffffffffffffffff1673ffffffffffffffffffffffffffffffffffffffff168152602001908152602001600020600083815260200190815260200160002080548060200260200160405190810160405280929190818152602001828054801561198b57602002820191906000526020600020905b8160009054906101000a900473ffffffffffffffffffffffffffffffffffffffff1673ffffffffffffffffffffffffffffffffffffffff1681526020019060010190808311611941575b50505050509050919050565b600a60205281600052604060002081815481106119b357600080fd5b90600052602060002001600091509150505481565b60015481565b606060008060008060003373ffffffffffffffffffffffffffffffffffffffff16600760003373ffffffffffffffffffffffffffffffffffffffff1673ffffffffffffffffffffffffffffffffffffffff16815260200190815260200160002060020160009054906101000a900473ffffffffffffffffffffffffffffffffffffffff1673ffffffffffffffffffffffffffffffffffffffff1614611aa8576040517f08c379a0000000000000000000000000000000000000000000000000000000008152600401611a9f9061325a565b60405180910390fd5b600560008873ffffffffffffffffffffffffffffffffffffffff1673ffffffffffffffffffffffffffffffffffffffff168152602001908152602001600020600001600560008973ffffffffffffffffffffffffffffffffffffffff1673ffffffffffffffffffffffffffffffffffffffff16815260200190815260200160002060010154600560008a73ffffffffffffffffffffffffffffffffffffffff1673ffffffffffffffffffffffffffffffffffffffff16815260200190815260200160002060020160009054906101000a900460ff16600560008b73ffffffffffffffffffffffffffffffffffffffff1673ffffffffffffffffffffffffffffffffffffffff16815260200190815260200160002060020160019054906101000a900460ff16600560008c73ffffffffffffffffffffffffffffffffffffffff1673ffffffffffffffffffffffffffffffffffffffff16815260200190815260200160002060020160029054906101000a900460ff16600560008d73ffffffffffffffffffffffffffffffffffffffff1673ffffffffffffffffffffffffffffffffffffffff16815260200190815260200160002060020160039054906101000a900473ffffffffffffffffffffffffffffffffffffffff16858054611c8c906131dd565b80601f0160208091040260200160405190810160405280929190818152602001828054611cb8906131dd565b8015611d055780601f10611cda57610100808354040283529160200191611d05565b820191906000526020600020905b815481529060010190602001808311611ce857829003601f168201915b505050505095508260ff16925095509550955095509550955091939550919395565b3373ffffffffffffffffffffffffffffffffffffffff16600760003373ffffffffffffffffffffffffffffffffffffffff1673ffffffffffffffffffffffffffffffffffffffff16815260200190815260200160002060020160009054906101000a900473ffffffffffffffffffffffffffffffffffffffff1673ffffffffffffffffffffffffffffffffffffffff1614611df7576040517f08c379a0000000000000000000000000000000000000000000000000000000008152600401611dee9061325a565b60405180910390fd5b600160036000828254611e0a91906133e9565b9250508190555060035460096000600354815260200190815260200160002060000181905550816009600060035481526020019081526020016000206001019081611e5591906135c9565b508060ff1660096000600354815260200190815260200160002060020181905550600160096000600354815260200190815260200160002060030160006101000a81548160ff0219169083151502179055503360096000600354815260200190815260200160002060030160016101000a81548173ffffffffffffffffffffffffffffffffffffffff021916908373ffffffffffffffffffffffffffffffffffffffff160217905550600a60003373ffffffffffffffffffffffffffffffffffffffff1673ffffffffffffffffffffffffffffffffffffffff16815260200190815260200160002060035490806001815401808255809150506001900390600052602060002001600090919091909150553373ffffffffffffffffffffffffffffffffffffffff166003547f2698464ad655505d4e3d628a57d3aa42216212937f687931b21dabcacd1cfbe384604051611faf9190613773565b60405180910390a35050565b3373ffffffffffffffffffffffffffffffffffffffff16600560003373ffffffffffffffffffffffffffffffffffffffff1673ffffffffffffffffffffffffffffffffffffffff16815260200190815260200160002060020160039054906101000a900473ffffffffffffffffffffffffffffffffffffffff1673ffffffffffffffffffffffffffffffffffffffff161461208b576040517f08c379a00000000000000000000000000000000000000000000000000000000081526004016120829061325a565b60405180910390fd5b60016004600082825461209e91906133e9565b9250508190555060006009600083815260200190815260200160002060030160019054906101000a900473ffffffffffffffffffffffffffffffffffffffff169050600b60008273ffffffffffffffffffffffffffffffffffffffff1673ffffffffffffffffffffffffffffffffffffffff1681526020019081526020016000206000838152602001908152602001600020339080600181540180825580915050600190039060005260206000200160009091909190916101000a81548173ffffffffffffffffffffffffffffffffffffffff021916908373ffffffffffffffffffffffffffffffffffffffff160217905550600d60003373ffffffffffffffffffffffffffffffffffffffff1673ffffffffffffffffffffffffffffffffffffffff1681526020019081526020016000208290806001815401808255809150506001900390600052602060002001600090919091909150555050565b600560205280600052604060002060009150905080600001805461221e906131dd565b80601f016020809104026020016040519081016040528092919081815260200182805461224a906131dd565b80156122975780601f1061226c57610100808354040283529160200191612297565b820191906000526020600020905b81548152906001019060200180831161227a57829003601f168201915b5050505050908060010154908060020160009054906101000a900460ff16908060020160019054906101000a900460ff16908060020160029054906101000a900460ff16908060020160039054906101000a900473ffffffffffffffffffffffffffffffffffffffff16908060030154905087565b3373ffffffffffffffffffffffffffffffffffffffff16600760003373ffffffffffffffffffffffffffffffffffffffff1673ffffffffffffffffffffffffffffffffffffffff16815260200190815260200160002060020160009054906101000a900473ffffffffffffffffffffffffffffffffffffffff1673ffffffffffffffffffffffffffffffffffffffff16146123dc576040517f08c379a00000000000000000000000000000000000000000000000000000000081526004016123d39061325a565b60405180910390fd5b823373ffffffffffffffffffffffffffffffffffffffff166009600083815260200190815260200160002060030160019054906101000a900473ffffffffffffffffffffffffffffffffffffffff1673ffffffffffffffffffffffffffffffffffffffff1614612481576040517f08c379a00000000000000000000000000000000000000000000000000000000081526004016124789061325a565b60405180910390fd5b83828073ffffffffffffffffffffffffffffffffffffffff16600e600084815260200190815260200160002060009054906101000a900473ffffffffffffffffffffffffffffffffffffffff1673ffffffffffffffffffffffffffffffffffffffff1614612524576040517f08c379a000000000000000000000000000000000000000000000000000000000815260040161251b906137e1565b60405180910390fd5b6005850361259c576000600560008673ffffffffffffffffffffffffffffffffffffffff1673ffffffffffffffffffffffffffffffffffffffff16815260200190815260200160002060020160006101000a81548160ff0219169083600581111561259257612591612f9b565b5b02179055506127bb565b60048503612614576001600560008673ffffffffffffffffffffffffffffffffffffffff1673ffffffffffffffffffffffffffffffffffffffff16815260200190815260200160002060020160006101000a81548160ff0219169083600581111561260a57612609612f9b565b5b02179055506127ba565b6003850361268c576002600560008673ffffffffffffffffffffffffffffffffffffffff1673ffffffffffffffffffffffffffffffffffffffff16815260200190815260200160002060020160006101000a81548160ff0219169083600581111561268257612681612f9b565b5b02179055506127b9565b60028503612704576003600560008673ffffffffffffffffffffffffffffffffffffffff1673ffffffffffffffffffffffffffffffffffffffff16815260200190815260200160002060020160006101000a81548160ff021916908360058111156126fa576126f9612f9b565b5b02179055506127b8565b6001850361277c576004600560008673ffffffffffffffffffffffffffffffffffffffff1673ffffffffffffffffffffffffffffffffffffffff16815260200190815260200160002060020160006101000a81548160ff0219169083600581111561277257612771612f9b565b5b02179055506127b7565b6040517f08c379a00000000000000000000000000000000000000000000000000000000081526004016127ae9061384d565b60405180910390fd5b5b5b5b5b6000600560008673ffffffffffffffffffffffffffffffffffffffff1673ffffffffffffffffffffffffffffffffffffffff168152602001908152602001600020600301819055506001600460008282546128169190613349565b92505081905550505050505050565b60045481565b6000604051905090565b600080fd5b600080fd5b6000819050919050565b6128528161283f565b811461285d57600080fd5b50565b60008135905061286f81612849565b92915050565b60006020828403121561288b5761288a612835565b5b600061289984828501612860565b91505092915050565b600073ffffffffffffffffffffffffffffffffffffffff82169050919050565b60006128cd826128a2565b9050919050565b6128dd816128c2565b82525050565b60006020820190506128f860008301846128d4565b92915050565b6129078161283f565b82525050565b600081519050919050565b600082825260208201905092915050565b60005b8381101561294757808201518184015260208101905061292c565b60008484015250505050565b6000601f19601f8301169050919050565b600061296f8261290d565b6129798185612918565b9350612989818560208601612929565b61299281612953565b840191505092915050565b60008115159050919050565b6129b28161299d565b82525050565b60006129c3826128a2565b9050919050565b6129d3816129b8565b82525050565b600060a0820190506129ee60008301886128fe565b8181036020830152612a008187612964565b9050612a0f60408301866128fe565b612a1c60608301856129a9565b612a2960808301846129ca565b9695505050505050565b612a3c816128c2565b8114612a4757600080fd5b50565b600081359050612a5981612a33565b92915050565b612a688161299d565b8114612a7357600080fd5b50565b600081359050612a8581612a5f565b92915050565b600080600060608486031215612aa457612aa3612835565b5b6000612ab286828701612860565b9350506020612ac386828701612a4a565b9250506040612ad486828701612a76565b9150509250925092565b600080fd5b600080fd5b7f4e487b7100000000000000000000000000000000000000000000000000000000600052604160045260246000fd5b612b2082612953565b810181811067ffffffffffffffff82111715612b3f57612b3e612ae8565b5b80604052505050565b6000612b5261282b565b9050612b5e8282612b17565b919050565b600067ffffffffffffffff821115612b7e57612b7d612ae8565b5b612b8782612953565b9050602081019050919050565b82818337600083830152505050565b6000612bb6612bb184612b63565b612b48565b905082815260208101848484011115612bd257612bd1612ae3565b5b612bdd848285612b94565b509392505050565b600082601f830112612bfa57612bf9612ade565b5b8135612c0a848260208601612ba3565b91505092915050565b600060ff82169050919050565b612c2981612c13565b8114612c3457600080fd5b50565b600081359050612c4681612c20565b92915050565b612c55816129b8565b8114612c6057600080fd5b50565b600081359050612c7281612c4c565b92915050565b60008060008060808587031215612c9257612c91612835565b5b600085013567ffffffffffffffff811115612cb057612caf61283a565b5b612cbc87828801612be5565b9450506020612ccd87828801612860565b9350506040612cde87828801612c37565b9250506060612cef87828801612c63565b91505092959194509250565b60008060408385031215612d1257612d11612835565b5b6000612d2085828601612a4a565b9250506020612d3185828601612860565b9150509250929050565b6000602082019050612d5060008301846128fe565b92915050565b600080600060608486031215612d6f57612d6e612835565b5b600084013567ffffffffffffffff811115612d8d57612d8c61283a565b5b612d9986828701612be5565b9350506020612daa86828701612860565b9250506040612dbb86828701612c63565b9150509250925092565b60008060408385031215612ddc57612ddb612835565b5b6000612dea85828601612860565b9250506020612dfb85828601612a4a565b9150509250929050565b6000602082019050612e1a60008301846129a9565b92915050565b60006040820190508181036000830152612e3a8185612964565b9050612e4960208301846128fe565b9392505050565b600060208284031215612e6657612e65612835565b5b6000612e7484828501612a4a565b91505092915050565b60006060820190508181036000830152612e978186612964565b9050612ea660208301856128fe565b612eb360408301846129ca565b949350505050565b600081519050919050565b600082825260208201905092915050565b6000819050602082019050919050565b612ef0816128c2565b82525050565b6000612f028383612ee7565b60208301905092915050565b6000602082019050919050565b6000612f2682612ebb565b612f308185612ec6565b9350612f3b83612ed7565b8060005b83811015612f6c578151612f538882612ef6565b9750612f5e83612f0e565b925050600181019050612f3f565b5085935050505092915050565b60006020820190508181036000830152612f938184612f1b565b905092915050565b7f4e487b7100000000000000000000000000000000000000000000000000000000600052602160045260246000fd5b60068110612fdb57612fda612f9b565b5b50565b6000819050612fec82612fca565b919050565b6000612ffc82612fde565b9050919050565b61300c81612ff1565b82525050565b600060c082019050818103600083015261302c8189612964565b905061303b60208301886128fe565b6130486040830187613003565b61305560608301866128fe565b61306260808301856129a9565b61306f60a08301846128d4565b979650505050505050565b6000806040838503121561309157613090612835565b5b600083013567ffffffffffffffff8111156130af576130ae61283a565b5b6130bb85828601612be5565b92505060206130cc85828601612c37565b9150509250929050565b6130df81612c13565b82525050565b600060e08201905081810360008301526130ff818a612964565b905061310e60208301896128fe565b61311b6040830188613003565b61312860608301876130d6565b61313560808301866129a9565b61314260a08301856129ca565b61314f60c08301846128fe565b98975050505050505050565b60008060006060848603121561317457613173612835565b5b600061318286828701612860565b935050602061319386828701612860565b92505060406131a486828701612a4a565b9150509250925092565b7f4e487b7100000000000000000000000000000000000000000000000000000000600052602260045260246000fd5b600060028204905060018216806131f557607f821691505b602082108103613208576132076131ae565b5b50919050565b7f6163636573732064656e69656400000000000000000000000000000000000000600082015250565b6000613244600d83612918565b915061324f8261320e565b602082019050919050565b6000602082019050818103600083015261327381613237565b9050919050565b7f4e487b7100000000000000000000000000000000000000000000000000000000600052603260045260246000fd5b60006040820190506132be60008301856128fe565b6132cb60208301846129a9565b9392505050565b7f4e487b7100000000000000000000000000000000000000000000000000000000600052601160045260246000fd5b600061330c8261283f565b91507fffffffffffffffffffffffffffffffffffffffffffffffffffffffffffffffff820361333e5761333d6132d2565b5b600182019050919050565b60006133548261283f565b915061335f8361283f565b9250828203905081811115613377576133766132d2565b5b92915050565b7f456d706c6f79656520416c726561647920457869737400000000000000000000600082015250565b60006133b3601683612918565b91506133be8261337d565b602082019050919050565b600060208201905081810360008301526133e2816133a6565b9050919050565b60006133f48261283f565b91506133ff8361283f565b9250828201905080821115613417576134166132d2565b5b92915050565b60008190508160005260206000209050919050565b60006020601f8301049050919050565b600082821b905092915050565b60006008830261347f7fffffffffffffffffffffffffffffffffffffffffffffffffffffffffffffffff82613442565b6134898683613442565b95508019841693508086168417925050509392505050565b6000819050919050565b60006134c66134c16134bc8461283f565b6134a1565b61283f565b9050919050565b6000819050919050565b6134e0836134ab565b6134f46134ec826134cd565b84845461344f565b825550505050565b600090565b6135096134fc565b6135148184846134d7565b505050565b5b818110156135385761352d600082613501565b60018101905061351a565b5050565b601f82111561357d5761354e8161341d565b61355784613432565b81016020851015613566578190505b61357a61357285613432565b830182613519565b50505b505050565b600082821c905092915050565b60006135a060001984600802613582565b1980831691505092915050565b60006135b9838361358f565b9150826002028217905092915050565b6135d28261290d565b67ffffffffffffffff8111156135eb576135ea612ae8565b5b6135f582546131dd565b61360082828561353c565b600060209050601f8311600181146136335760008415613621578287015190505b61362b85826135ad565b865550613693565b601f1984166136418661341d565b60005b8281101561366957848901518255600182019150602085019450602081019050613644565b868310156136865784890151613682601f89168261358f565b8355505b6001600288020188555050505b505050505050565b7f456d706c6f79657220416c726561647920457869737400000000000000000000600082015250565b60006136d1601683612918565b91506136dc8261369b565b602082019050919050565b60006020820190508181036000830152613700816136c4565b9050919050565b7f696c6c6567616c206f7065726174696f6e000000000000000000000000000000600082015250565b600061373d601183612918565b915061374882613707565b602082019050919050565b6000602082019050818103600083015261376c81613730565b9050919050565b6000602082019050818103600083015261378d8184612964565b905092915050565b7f526174696e672077726f6e6720776f726b657200000000000000000000000000600082015250565b60006137cb601383612918565b91506137d682613795565b602082019050919050565b600060208201905081810360008301526137fa816137be565b9050919050565b7f5261746520696e207363616c65206f66203120746f2035000000000000000000600082015250565b6000613837601783612918565b915061384282613801565b602082019050919050565b600060208201905081810360008301526138668161382a565b905091905056fea264697066735822122055f7d84013c013de055d2e28ef7cfe258fd390b38815d0968124b2c7c020601664736f6c63430008130033",
  "immutableReferences": {},
  "source": "// SPDX-License-Identifier: unlicensed\npragma solidity >=0.8.2 <0.9.0;\n\n\ncontract jobPortal{\n    address ADMIN;\n    enum rating{A,B,C,D,E,NotRated}\n    uint public employeeCount;\n    uint public employerCount;\n    uint public jobCount;\n    uint public openTransactions;\n\n\n    struct employee{\n        string name;\n        uint256 KYC_UID;\n        rating Rating;\n        uint8 experence;\n        bool status;\n        address payable wallet;\n        uint currentJobId;\n    \n    }\n \n    struct employer{\n        string name;\n        uint256 KYC_UID;\n        address payable wallet;\n    }\n\n    struct job{\n        uint jobId;\n        string titile;\n        uint256 timeInDays;\n        bool status;\n        address payable jobOwner;\n    }\n    \n    mapping(address => employee) public employeeList;  //employee address => employee details\n    address[] public employees;\n    mapping(address => employer) public employerList;  //employee address => employee details\n    address[] public employers; // all employers list \n    mapping(uint => job) public jobList;    //jobId => job detsils \n    mapping(address => uint[]) public employersWisejobID; // employers => all posted jobIds\n    mapping(address => mapping (uint => address[]))jobApplications; // employers => jobId => all applicants address \n    mapping(uint => mapping(address => bool)) public joboffer; // jobid => applicant address => true:offer || false :reject\n    mapping(address => uint[]) public appliedJobs; // employee => applied JobId's\n    mapping(uint => address)worker; // jobid ==> worker confirmed on JOB\n\n    event eventAddEmployee(address indexed _employeeAddress, string _name, uint256 _KYC_UID);\n    event eventAddEmployer(address indexed _employerAddress, string _name, uint256 _KYC_UID);\n    event jobPost(uint indexed _jobId,address indexed _jobOwner,string _titile);\n    event jobOfferStatus(address indexed _employer,address indexed _employee,uint _jobId,bool _status);\n    event jobAccepted(address indexed _employee,uint _jobId);\n\n    constructor() {\n        ADMIN = msg.sender; \n        employeeCount = 0;\n        employerCount = 0;\n        jobCount = 0;\n        openTransactions = 0;\n    }\n\n    function addEmployee(string memory _name,uint256 _KYC_UID, uint8 _experence,address payable _wallet) _isAdmin _ifEmployeeExist(_wallet) external {\n        employeeCount += 1;\n        employeeList[_wallet].name = _name;\n        employeeList[_wallet].KYC_UID= _KYC_UID; \n        employeeList[_wallet].Rating = rating.NotRated;\n        employeeList[_wallet].experence =_experence;\n        employeeList[_wallet].status = true;\n        employeeList[_wallet].wallet = payable(_wallet);\n        employeeList[_wallet].currentJobId = 0;\n        employees.push(_wallet);\n        emit eventAddEmployee(_wallet, _name,_KYC_UID);   \n    }\n\n    function addEmployer(string memory _name,uint256 _KYC_UID,address payable _wallet) _isAdmin _ifEmployerExist(_wallet)external {\n        employerCount += 1;\n        employers.push(msg.sender);\n        employerList[_wallet].name = _name;\n        employerList[_wallet].KYC_UID = _KYC_UID;\n        employerList[_wallet].wallet = _wallet;\n        emit eventAddEmployer(_wallet, _name,_KYC_UID);   \n    }\n   \n    function postJob(string memory _titile, uint8 _timeInDays) _isEmployer() public  {\n        jobCount += 1;\n        jobList[jobCount].jobId = jobCount;\n        jobList[jobCount].titile = _titile;\n        jobList[jobCount].timeInDays = _timeInDays;\n        jobList[jobCount].status = true;\n        jobList[jobCount].jobOwner = payable(msg.sender);\n        employersWisejobID[msg.sender].push(jobCount);\n        emit jobPost(jobCount,msg.sender,_titile);\n    }\n\n    function getjob(uint _jobId) _isEmployee external view returns  (string memory,uint){\n        return(jobList[_jobId].titile,jobList[_jobId].timeInDays);\n    }\n\n    function applyjob(uint _jobId) _isEmployee external {\n        openTransactions+= 1;\n        address _employer;\n        _employer = jobList[_jobId].jobOwner;\n        jobApplications[_employer][_jobId].push(msg.sender);\n        appliedJobs[msg.sender].push(_jobId);\n\n    }\n\n    function getApplicants(uint _jobId) _isEmployer external view returns(address[] memory) {\n        return(jobApplications[msg.sender][_jobId]);\n    }\n\n    function applicantDetails(address _address) _isEmployer external view returns(string memory,uint256,rating,uint,bool,address) {\n        return(\n            employeeList[_address].name,\n            employeeList[_address].KYC_UID,\n            employeeList[_address].Rating,\n            employeeList[_address].experence,\n            employeeList[_address].status,\n            employeeList[_address].wallet\n        );\n    }\n    \n    function applicationAction(uint _jobId, address _employee,bool _action) _isJobOwner(_jobId) _isEmployer external {\n        \n        for(uint i = 0; i< jobApplications[msg.sender][_jobId].length;i++ ){\n            if(jobApplications[msg.sender][_jobId][i] == _employee){\n                joboffer[_jobId][_employee] = _action;\n                emit jobOfferStatus(msg.sender,_employee,_jobId,_action);\n            }\n            else {continue;}\n        }\n        if (!_action){openTransactions-= 1;}\n        \n    }\n\n    function acceptJob(uint _jobId) _isEmployee() _isApplicant(_jobId) external {\n        employeeList[msg.sender].currentJobId = _jobId;\n        employeeList[msg.sender].status = false;\n        worker[_jobId] = msg.sender;\n        emit jobAccepted(msg.sender,_jobId);\n\n    }\n\n    function rateEmployee(uint _jobId,uint _rating,address _employee) _isEmployer _isJobOwner(_jobId) _isWorker(_jobId,_employee) external {\n        \n        if (_rating == 5 ){employeeList[_employee].Rating =  rating.A;}else\n        if (_rating == 4 ){employeeList[_employee].Rating =  rating.B;}else\n        if (_rating == 3 ){employeeList[_employee].Rating =  rating.C;}else\n        if (_rating == 2 ){employeeList[_employee].Rating =  rating.D;}else\n        if (_rating == 1 ){employeeList[_employee].Rating =  rating.E;}\n        else {revert(\"Rate in scale of 1 to 5\");\n        }\n        employeeList[_employee].currentJobId = 0;\n        openTransactions-= 1;\n    }\n\n    modifier _isEmployee(){\n        require(employeeList[msg.sender].wallet == msg.sender, \"access denied\");\n        _;\n    }\n\n    modifier _isEmployer(){\n        require(employerList[msg.sender].wallet == msg.sender, \"access denied\");\n        _;\n    }\n\n    modifier _isAdmin(){\n        require(ADMIN == msg.sender, \"access denied\");\n        _;\n    }\n    \n    modifier _isJobOwner(uint _jobId){\n        require(jobList[_jobId].jobOwner == msg.sender , \"access denied\");\n        _;\n    }\n\n    modifier _isApplicant(uint _jobId){\n        bool isValid;\n        for(uint i = 0 ; i < appliedJobs[msg.sender].length ; i++ )\n        {\n            if(appliedJobs[msg.sender][i] == _jobId) { isValid = true;} else {continue;}\n        \n        }\n        require(isValid,\"illegal operation\"); \n        _;\n    }\n\n    modifier _isWorker(uint _jobId, address _employee){\n        require(worker[_jobId] == _employee, \"Rating wrong worker\");\n        _;\n    }\n\n    modifier _ifEmployeeExist(address _wallet){\n        bool isValid = true;\n        for (uint i = 0; i< employees.length;i++)\n        {\n            if(employees[i] == _wallet)\n            {isValid = false;}\n            else {continue;}\n        }require(isValid,\"Employee Already Exist\");\n        _;\n    }\n\n    modifier _ifEmployerExist(address _wallet){\n        bool isValid = true;\n        for (uint i = 0; i < employers.length; i++)\n        {\n            if(employers[i] == _wallet)\n            {isValid = false;}\n            else {continue;}\n        }require(isValid,\"Employer Already Exist\");\n        _;\n    }\n   \n   \n}",
  "sourcePath": "/home/vikshith/IITCertProjects/jobprotal/truffle/contracts/jobportal.sol",
  "compiler": {
    "name": "solc",
    "version": "0.8.19+commit.7dd6d404.Emscripten.clang"
  },
  "schemaVersion": "3.4.13",
  "updatedAt": "2023-04-28T15:14:55.965Z",
  "networkType": "ethereum",
  "devdoc": {
    "kind": "dev",
    "methods": {},
    "version": 1
  },
  "userdoc": {
    "kind": "user",
    "methods": {},
    "version": 1
  }
}